:020000040800F2
:1000000000000220958800085D8300085F830008D7
:100010006183000863830008658300080000000016
:1000200000000000000000000000000067830008DE
:1000300069830008000000006B8300086D830008DE
:10004000E5880008E5880008E5880008E5880008DC
:10005000E5880008E5880008E5880008E5880008CC
:10006000E5880008E5880008E5880008E5880008BC
:10007000E5880008E5880008E5880008E5880008AC
:10008000E5880008E5880008E58800080000000011
:10009000000000000000000000000000E5880008EB
:1000A000E588000875830008E5880008E5880008F1
:1000B000E5880008E5880008E5880008E58800086C
:1000C000E5880008E5880008E5880008E58800085C
:1000D000E5880008E5880008E588000800000000C1
:1000E000E5880008E5880008E588000800000000B1
:1000F000000000000000000000000000E58800088B
:1001000000000000E5880008E5880008E588000890
:1001100000000000000000000000000000000000DF
:10012000E5880008E5880008E5880008E5880008FB
:10013000E58800080000000000000000000000004A
:10014000000000000000000000000000858300089F
:10015000E5880008E5880008E5880008E5880008CB
:10016000E5880008E58800080000000000000000A5
:10017000000000000000000000000000000000007F
:1001800000000000E58800080000000000000000FA
:08019000E5880008E58800087D
:1001A00010B5054C237833B9044B13B10448AFF3B1
:1001B00000800123237010BDFC010020000000001E
:1001C000D8A9000808B5034B1BB103490348AFF396
:1001D000008008BD0000000000020020D8A900082F
:1001E00081F0004102E000BF83F0004330B54FEAE8
:1001F00041044FEA430594EA050F08BF90EA020F55
:100200001FBF54EA000C55EA020C7FEA645C7FEAE7
:10021000655C00F0E2804FEA5454D4EB5555B8BF0A
:100220006D420CDD2C4480EA020281EA030382EA7B
:10023000000083EA010180EA020281EA0303362D0D
:1002400088BF30BD11F0004F4FEA01314FF4801CE0
:100250004CEA113102D0404261EB410113F0004FF2
:100260004FEA03334CEA133302D0524263EB4303A9
:1002700094EA050F00F0A780A4F10104D5F1200E47
:100280000DDB02FA0EFC22FA05F2801841F10001A2
:1002900003FA0EF2801843FA05F359410EE0A5F176
:1002A00020050EF1200E012A03FA0EFC28BF4CF0A7
:1002B000020C43FA05F3C01851EBE37101F000455D
:1002C00007D54FF0000EDCF1000C7EEB00006EEB6A
:1002D0000101B1F5801F1BD3B1F5001F0CD34908F4
:1002E0005FEA30004FEA3C0C04F101044FEA44524B
:1002F00012F5800F80F09A80BCF1004F08BF5FEAD2
:10030000500C50F1000041EB045141EA050130BDB1
:100310005FEA4C0C404141EB010111F4801FA4F154
:100320000104E9D191F0000F04BF01460020B1FAA9
:1003300081F308BF2033A3F10B03B3F120020CDAE1
:100340000C3208DD02F1140CC2F10C0201FA0CF0BF
:1003500021FA02F10CE002F11402D8BFC2F1200C24
:1003600001FA02F120FA0CFCDCBF41EA0C019040DA
:10037000E41AA2BF01EB0451294330BD6FEA040423
:100380001F3C1CDA0C340EDC04F11404C4F120020E
:1003900020FA04F001FA02F340EA030021FA04F320
:1003A00045EA030130BDC4F10C04C4F1200220FA77
:1003B00002F001FA04F340EA0300294630BD21FAB5
:1003C00004F0294630BD94F0000F83F4801306BF7B
:1003D00081F480110134013D4EE77FEA645C18BF6F
:1003E0007FEA655C29D094EA050F08BF90EA020F06
:1003F00005D054EA000C04BF1946104630BD91EAFE
:10040000030F1EBF0021002030BD5FEA545C05D100
:100410004000494128BF41F0004130BD14F580043F
:100420003CBF01F5801130BD01F0004545F0FE41B3
:1004300041F470014FF0000030BD7FEA645C1ABFE8
:10044000194610467FEA655C1CBF0B46024650EA1F
:10045000013406BF52EA033591EA030F41F400214B
:1004600030BD00BF90F0000F04BF0021704730B5D1
:100470004FF4806404F132044FF000054FF00001A6
:1004800050E700BF90F0000F04BF0021704730B567
:100490004FF4806404F1320410F0004548BF40423C
:1004A0004FF000013EE700BF42004FEAE2014FEA91
:1004B00031014FEA02701FBF12F07F4393F07F4F6C
:1004C00081F06051704732F07F4208BF704793F06F
:1004D0007F4F04BF41F40021704730B54FF4607482
:1004E00001F0004521F000411CE700BF50EA010285
:1004F00008BF704730B54FF000050AE050EA01022E
:1005000008BF704730B511F0004502D5404261EB9D
:1005100041014FF4806404F132045FEA915C3FF4DE
:10052000D8AE4FF003025FEADC0C18BF03325FEA7B
:10053000DC0C18BF033202EBDC02C2F1200300FA2C
:1005400003FC20FA02F001FA03FE40EA0E0021FA51
:1005500002F11444BDE600BF70B54FF0FF0C4CF43F
:10056000E06C1CEA11541DBF1CEA135594EA0C0FF1
:1005700095EA0C0F00F0DEF82C4481EA030621EA2C
:100580004C5123EA4C5350EA013518BF52EA033567
:1005900041F4801143F4801338D0A0FB02CE4FF019
:1005A0000005E1FB02E506F00042E0FB03E54FF049
:1005B0000006E1FB03569CF0000F18BF4EF0010E41
:1005C000A4F1FF04B6F5007F64F5407404D25FEA3D
:1005D0004E0E6D4146EB060642EAC62141EA5551F0
:1005E0004FEAC52040EA5E504FEACE2EB4F1FD0C32
:1005F00088BFBCF5E06F1ED8BEF1004F08BF5FEAB0
:10060000500E50F1000041EB045170BD06F0004661
:1006100046EA010140EA020081EA0301B4EB5C040E
:10062000C2BFD4EB0C0541EA045170BD41F4801106
:100630004FF0000E013C00F3AB8014F1360FDEBF2B
:10064000002001F0004170BDC4F10004203C35DA07
:100650000C341BDC04F11404C4F1200500FA05F38A
:1006600020FA04F001FA05F240EA020001F000422B
:1006700021F0004110EBD37021FA04F642EB0601A1
:100680005EEA430E08BF20EAD37070BDC4F10C04CB
:10069000C4F1200500FA04F320FA05F001FA04F28F
:1006A00040EA020001F0004110EBD37041F100017B
:1006B0005EEA430E08BF20EAD37070BDC4F1200586
:1006C00000FA05F24EEA020E20FA04F301FA05F2EE
:1006D00043EA020321FA04F001F0004121FA04F296
:1006E00020EA020000EBD3705EEA430E08BF20EA66
:1006F000D37070BD94F0000F0FD101F000464000A0
:1007000041EB010111F4801F08BF013CF7D041EA21
:10071000060195F0000F18BF704703F00046520025
:1007200043EB030313F4801F08BF013DF7D043EAF6
:100730000603704794EA0C0F0CEA135518BF95EAAC
:100740000C0F0CD050EA410618BF52EA4306D1D133
:1007500081EA030101F000414FF0000070BD50EA52
:10076000410606BF1046194652EA430619D094EADC
:100770000C0F02D150EA013613D195EA0C0F05D1C6
:1007800052EA03361CBF104619460AD181EA03011A
:1007900001F0004141F0FE4141F470014FF00000D2
:1007A00070BD41F0FE4141F4780170BD70B54FF06D
:1007B000FF0C4CF4E06C1CEA11541DBF1CEA1355ED
:1007C00094EA0C0F95EA0C0F00F0A7F8A4EB0504CF
:1007D00081EA030E52EA03354FEA013100F08880C6
:1007E0004FEA03334FF0805545EA131343EA12638F
:1007F0004FEA022245EA111545EA10654FEA002644
:100800000EF000419D4208BF964244F1FD0404F5FC
:10081000407402D25B084FEA3202B61A65EB030558
:100820005B084FEA32024FF480104FF4002CB6EB15
:10083000020E75EB030E22BFB61A754640EA0C0095
:100840005B084FEA3202B6EB020E75EB030E22BFD5
:10085000B61A754640EA5C005B084FEA3202B6EB16
:10086000020E75EB030E22BFB61A754640EA9C00D5
:100870005B084FEA3202B6EB020E75EB030E22BFA5
:10088000B61A754640EADC0055EA060E18D04FEA63
:10089000051545EA16754FEA06164FEAC30343EA03
:1008A00052734FEAC2025FEA1C1CC0D111F4801FD0
:1008B0000BD141EA00014FF000004FF0004CB6E7C9
:1008C00011F4801F04BF01430020B4F1FD0C88BF68
:1008D000BCF5E06F3FF6AFAEB5EB030C04BFB6EB73
:1008E000020C5FEA500C50F1000041EB045170BD66
:1008F0000EF0004E4EEA113114EB5C04C2BFD4EB93
:100900000C0541EA045170BD41F480114FF0000E16
:10091000013C90E645EA060E8DE60CEA135594EA92
:100920000C0F08BF95EA0C0F3FF43BAF94EA0C0F95
:100930000AD150EA01347FF434AF95EA0C0F7FF40A
:1009400025AF104619462CE795EA0C0F06D152EA5E
:1009500003353FF4FDAE1046194622E750EA410642
:1009600018BF52EA43067FF4C5AE50EA41047FF453
:100970000DAF52EA43057FF4EBAE12E74FF0FF3CB8
:1009800006E000BF4FF0010C02E000BF4FF0010C89
:100990004DF804CD4FEA410C7FEA6C5C4FEA430C02
:1009A00018BF7FEA6C5C1BD001B050EA410C0CBF51
:1009B00052EA430C91EA030F02BF90EA020F0020B3
:1009C000704710F1000F91EA030F58BF994208BF1A
:1009D00090422CBFD8176FEAE37040F001007047D7
:1009E0004FEA410C7FEA6C5C02D150EA013C07D12E
:1009F0004FEA430C7FEA6C5CD6D152EA033CD3D079
:100A00005DF8040B704700BF8446104662468C4672
:100A10001946634600E000BF01B5FFF7B7FF0028A5
:100A200048BF10F1000F01BD4DF808EDFFF7F4FFCE
:100A30000CBF012000205DF808FB00BF4DF808ED59
:100A4000FFF7EAFF34BF012000205DF808FB00BF7C
:100A50004DF808EDFFF7E0FF94BF012000205DF89E
:100A600008FB00BF4DF808EDFFF7CEFF94BF012053
:100A700000205DF808FB00BF4DF808EDFFF7C4FF4C
:100A800034BF012000205DF808FB00BF4FEA410C95
:100A90007FEA6C5C02D150EA013C0AD14FEA430C78
:100AA0007FEA6C5C02D152EA033C02D14FF00000B5
:100AB00070474FF00100704753B94AB9002908BF89
:100AC00000281CBF4FF0FF314FF0FF3000F072B92B
:100AD000ADF1080C6DE904CE00F006F8DDF804E095
:100AE000DDE9022304B070472DE9F047089E044673
:100AF0008846002B4BD18A42154667D9B2FA82F25A
:100B00004AB1C2F1200701FA02F320FA07F7954033
:100B100047EA030894404FEA154E230CB8FBFEF752
:100B20001FFA85FC0EFB178843EA084307FB0CF10C
:100B3000994209D9EB1807F1FF3080F01B819942E7
:100B400040F21881023F2B445B1AA4B2B3FBFEF0C3
:100B50000EFB103344EA034400FB0CFCA44509D906
:100B60002C1900F1FF3380F00781A44540F2048185
:100B700002382C4440EA0740A4EB0C0400271EB1C5
:100B8000D4400023C6E900433946BDE8F0878B42D4
:100B900009D9002E00F0EB800027C6E90001384695
:100BA0003946BDE8F087B3FA83F7002F47D18B426F
:100BB00002D3824200F2FA80841A61EB030301201F
:100BC0009846002EE0D0C6E90048DDE702B9FFDE16
:100BD000B2FA82F2002A40F08F80491B4FEA154E8C
:100BE0001FFA85F80127B1FBFEFC230C0EFB1C113C
:100BF00043EA014308FB0CF1994207D9EB180CF1C9
:100C0000FF3002D2994200F2CD808446591AA3B235
:100C1000B1FBFEF00EFB101443EA044408FB00F89D
:100C2000A04507D92C1900F1FF3302D2A04500F2EC
:100C3000B6801846A4EB080440EA0C409FE7C7F1D1
:100C4000200CBB4022FA0CFE4EEA030E01FA07F418
:100C500020FA0CF521FA0CF34FEA1E482543B3FBAA
:100C6000F8F92C0C08FB19331FFA8EFA44EA0343F7
:100C700009FB0AF49C4202FA07F200FA07F10BD9C9
:100C80001EEB030309F1FF3080F087809C4240F2A5
:100C90008480A9F1020973441B1BADB2B3FBF8F0C9
:100CA00008FB103345EA034400FB0AFAA24508D9C1
:100CB0001EEB040400F1FF336BD2A24569D9023860
:100CC000744440EA0940A0FB0289A4EB0A044C45A5
:100CD000C2464B4654D351D0002E69D0B1EB0A0521
:100CE00064EB030404FA0CFCFD40FC404CEA0505EF
:100CF000C6E90054002747E7C2F1200320FA03F7B2
:100D0000954001FA02F021FA03F34FEA154E3843F9
:100D1000010CB3FBFEF71FFA85F80EFB173341EA0F
:100D2000034107FB08F38B4204FA02F407D9691860
:100D300007F1FF3C2FD28B422DD9023F2944CB1A19
:100D400081B2B3FBFEF00EFB103341EA034100FB1E
:100D500008F38B4207D9691800F1FF3C17D28B4288
:100D600015D902382944C91A40EA07473BE73746F4
:100D7000304609E70746E7E61846FBE64145ABD2B1
:100D8000B8EB020A69EB0E0201381346A4E760468D
:100D9000E9E7184695E76746D1E781467CE70238E0
:100DA0002C4447E7ACF1020C2B442FE7384608E708
:100DB0003746E9E6704700BF034613F8012B002AC7
:100DC000FBD1181A01387047000000000000000035
:100DD00001F0FF01102A2BDB10F0070F08D010F8EC
:100DE000013B013A8B422DD010F0070F42B3F6D1F0
:100DF000F0B441EA012141EA014122F007047FF009
:100E000000070023F0E80256083C85EA010586EA5F
:100E1000010685FA47F5A3FA87F586FA47F6A5FA9B
:100E200087F68EB9EED1F0BC01F0FF0102F00702A7
:100E300032B110F8013B013A83EA010313B1F8D152
:100E40000020704701387047002D06BF3546033833
:100E5000073815F0010F07D1013015F4807F02BF6C
:100E6000013015F4C03F0130F0BC0138704700BFBD
:100E70004FEA410212F5001215D211D56FF47873C2
:100E8000B3EB625212D94FEAC12343F0004343EA65
:100E9000505311F0004F23FA02F018BF4042704740
:100EA0004FF00000704750EA013005D111F00040CA
:100EB00008BF6FF0004070474FF00000704700BF60
:100EC00010B504460E4B18784FF47A73B3FBF0F369
:100ED0000C4A1068B0FBF3F000F0D2F868B90F2CA0
:100EE00001D901200AE0002221464FF0FF3000F036
:100EF00069F8034B5C60002000E0012010BD00BFDA
:100F0000000000202800002008B50B4B1A6842F4AE
:100F100000721A601A6842F480621A601A6842F419
:100F200080721A60032000F02FF80020FFF7C8FF3E
:100F300007F0F8F9002008BD003C0240034A1168A0
:100F4000034B1B780B441360704700BF3402002032
:100F500000000020014B1868704700BF34020020D9
:100F600038B50446FFF7F6FF0546B4F1FF3F02D05F
:100F7000044B1B781C44FFF7EDFF401BA042FAD343
:100F800038BD00BF0000002010B50446C31E042B6E
:100F90000FD80A4AD36823F4E0631B041B0C240215
:100FA00004F4E064234343F0BF6343F40033D360AD
:100FB00010BD9221024807F0E4F8EAE700ED00E0F6
:100FC00010AA000870B505460C4616460F2A25D80B
:100FD0000F2C28D81B4BDB68C3F30223C3F1070295
:100FE000042A28BF0422191D062921D9033B4FF0EA
:100FF000FF3101FA02F224EA02049C4001FA03F3F1
:1010000026EA03063443002D14DB2401E4B205F183
:10101000604505F5614585F8004370BDAA210A4881
:1010200007F0AFF8D4E7AB21074807F0AAF8D1E7FB
:101030000023DCE705F00F052401E4B2034B5C5507
:10104000EBE700BF00ED00E010AA000814ED00E09F
:1010500010B5041E0ADB002C07DB04F01F02640934
:1010600001239340044A42F8243010BDBE210348B6
:1010700007F087F8EFE700BF00E100E010AA0008E2
:101080000138B0F1807F0AD2064B5860064AF02141
:1010900082F823100020986007221A607047012010
:1010A000704700BF10E000E000ED00E02DE9F047E0
:1010B00082B080460E46A44B984217D003F5806359
:1010C000984213D003F5806398420FD003F58063F4
:1010D00098420BD003F58063984207D003F5406334
:1010E000984203D0B321994807F04BF833689AB27D
:1010F00012B11B0C1B041BB1B421944807F041F83A
:101100007368012B1ED9112B1CD0022B1AD0122B65
:1011100018D08F4A934215D002F58012934211D015
:1011200002F5801293420DD0A2F5F812934209D035
:1011300002F58012934205D002F58012934201D04D
:10114000032B04D1B368022B06D8002445E0B52157
:101150007E4807F016F8F5E7B6217C4807F011F84D
:10116000F3E7DA21794807F00CF890E0042300E077
:1011700000238B4003430232764941F82230764BFC
:101180001A68FB4303EA0201706810F4803F01D043
:1011900047EA0201704A1160526803EA020170686E
:1011A00010F4003F01D047EA02016B4A5160926897
:1011B00003EA0201706810F4801F01D047EA0201BF
:1011C000654A9160D2681340716811F4001F01D024
:1011D00047EA0203604AD36001340F2C00F2B0806A
:1011E0000125A54037682F40BD42F5D17368022B19
:1011F00001D0122B2BD13369CBB1092B17D0012B86
:1012000015D0022B13D0042B11D0052B0FD0062B99
:101210000DD0072B0BD0082B09D00A2B07D00C2B95
:1012200005D00F2B03D0C721484806F0AAFFE208DB
:10123000083258F8220004F0070399000F238B406E
:1012400020EA030033698B40034348F82230D8F882
:1012500000204FEA440A4FF0030909FA0AF96FEA3D
:10126000090909EA0202736803F0030303FA0AF3A7
:101270001343C8F8003073685A1E012A03D9112B92
:1012800001D0122B18D1F368032B3FF66AAFD8F8C0
:10129000082009EA0202F36803FA0AF31343C8F8C4
:1012A0000830D8F8042022EA05027368C3F3001559
:1012B000A5401543C8F80450D8F80C3009EA0309D2
:1012C000B36803FA0AF343EA0903C8F80C307368F9
:1012D00013F0805F80D000230193204B5A6C42F4BE
:1012E00080425A645B6C03F480430193019BA20823
:1012F000911C184B53F8210004F0030399000F23AD
:101300008B4020EA0300104B98453FF431AF03F5C2
:10131000806398450ED003F5806398450CD003F5A3
:10132000806398450AD003F5806398453FF41EAF6B
:1013300007231EE701231CE702231AE7032318E70C
:1013400002B0BDE8F08700BF000002404CAA0008D0
:101350000000111000380140003C014000380240FC
:1013600038B505460C4621B12B691C4207D1002037
:1013700038BD4FF4BF71034806F003FFF4E70120C6
:10138000F6E700BF4CAA000870B5064615460C46A5
:1013900029B1012D09D875B92404B46170BD40F29A
:1013A0009F11064806F0EDFEF3E74FF4D0710348B5
:1013B00006F0E7FEEFE7B461F0E700BF4CAA0008D3
:1013C000F8B50668346A04F00F07C4F34343C4F366
:1013D0000A14022B2ED16CB307EB8702D30003440F
:1013E000596C39B305462246304604F07FF8BA00FE
:1013F0003A44D3002B445A6C22445A64DA6C224497
:10140000DA6406EB4713D3F810150B4A0A408AB189
:10141000D3F8002522F0804242F00042C3F80025B4
:10142000BB00D919CA002A4492F8503083F0010356
:1014300082F85030F8BD00BF0000F81FF0B585B04D
:101440009DF828509DF82C60BDF8307090F8B84297
:10145000012C41D0012480F8B8424FEA810C8C4421
:101460004FEACC0404444FF0000C84F83DC084F8EB
:101470003830A4F8407084F8391084F83F6002F0E6
:101480007F0C84F83AC012F0800F1BD101EB810C65
:101490004FEACC0404444FF0000C84F83BC00446EF
:1014A00001EB810C4FEACC00204480F83C500297BD
:1014B00001960095206804F025F9002384F8B832DD
:1014C00005B0F0BD01EB810C4FEACC0404444FF0B1
:1014D000010C84F83BC0E2E70220F1E790F8B83253
:1014E000012B0BD010B50446012380F8B8320068F8
:1014F00004F091F9002084F8B80210BD0220704772
:1015000000284ED0F0B58BB006460368B3F1A04F6B
:1015100003D07A21244806F034FE346896F8B932B4
:10152000002B38D0032386F8B932E36B13F4807FA5
:1015300001D100233361306803F07FFF344654F853
:1015400010CB6D460FCC0FC50FCC0FC594E8030030
:1015500085E80300371D97E80E00604603F022FF80
:101560000121306803F06FFF344654F810CB6D460C
:101570000FCC0FC50FCC0FC594E8030085E803001E
:1015800097E80E00604604F02FF8012386F8B93280
:1015900000200BB0F0BD86F8B832304607F040F8B6
:1015A000C0E70120704700BF88AA0008F8B59DF881
:1015B0001870BDF820608D000D44EC00044484F8E0
:1015C0003B2084F83F306FB901EB8105EC00044407
:1015D000032584F84250032B00F29680DFE803F0E5
:1015E0000A8D2F5E01EB8105EC000444022584F88E
:1015F0004250F0E7012F40F08780002A40F08480BD
:1016000036B901EB8102D3000344012283F8512053
:1016100001EB8102D300034493F851303BB901EB55
:101620008102D3000344002283F842206CE001EBE6
:101630008102D3000344022283F8422064E0B2B95D
:1016400001EB8102D300034493F851303BB901EB25
:101650008102D3000344002283F8422054E001EBCE
:101660008102D3000344022283F842204CE001EBC4
:101670008102D300034493F850303BB901EB81025F
:10168000D3000344002283F842203DE001EB8102B5
:10169000D3000344022283F8422035E0B2B901EBC3
:1016A0008102D300034493F851303BB901EB81022E
:1016B000D3000344002283F8422025E001EB81029D
:1016C000D3000344022283F842201DE001EB810293
:1016D000D300034493F850303BB901EB8102D300AF
:1016E0000344002283F842200EE001EB8102D30084
:1016F0000344022283F8422006E001EB8102D3007A
:101700000344002283F842208A005418E300034473
:10171000079C5C649E64002483F85C40DC6483F86E
:10172000391083F85D401144CB0003F13801027C8D
:101730000144006804F0EAF8F8BD30B583B005460E
:101740000468D4F840340193D4F840340093009BEB
:1017500023F02E030093019B13F0020F07D0019B8F
:1017600013F0010F28D1009B43F002030093019B6B
:1017700013F0080F13D0009B43F008030093019B64
:1017800013F0040F34D0AB69022B1CD0EB68012B93
:1017900029D0284606F0A5FF284606F095FF019BB4
:1017A00013F0200F03D0009B43F020030093009B15
:1017B000C4F8403403B030BDA36923F00053A361E3
:1017C00006F082FFCFE7019B03F4C023B3F5802F1F
:1017D00004D00121286803F0A5FEDAE70221286879
:1017E00003F0A0FED5E74EF66022C4F80424D0E74B
:1017F000284606F07CFFD4F8403423F02E03C4F8CA
:1018000040342A68936943F000539361C7E7F8B501
:1018100006460D46076807EB411707F5A064A36865
:1018200013F0040F3ED00423A360E36843F00203E7
:10183000E360A36813F4007F6AD1A36813F0010F7B
:1018400000F0878033694BB1AA002A44D3003344A7
:101850009A6C2169C1F31201521ADA64AA002A446F
:10186000D3003344012283F85D2000219965A260F2
:1018700093F83F30002B57D0022B55D0032B5DD16E
:10188000D7F8003543F00053C7F8003505EB850263
:10189000D3003344012283F85C202946304606F009
:1018A0001FFF4BE0A36813F0200F02D02023A3609A
:1018B000BFE7A36813F0080F17D1A36813F4806F74
:1018C000B7D0E36843F00203E360006803F0A3FFCE
:1018D0001023A36005EB8502D3003344082283F86C
:1018E0005D204FF48063A360A3E7E36843F0020345
:1018F000E36001EB8102D3000344052283F85D20FD
:101900001023A3600823A360006803F084FF90E71E
:10191000E36843F00203E3602946306803F07BFF8D
:101920004FF40073A36013E0E36843F00203E36045
:101930002946306803F06FFF1023A360AB005919EC
:10194000CA00324492F8503083F0010382F85030DC
:10195000F8BDA36813F0020F62D0E36823F002031E
:10196000E36005EB8502D300334493F85D30012B2F
:1019700017D0052B29D0062B2FD0082B2DD0032BC9
:1019800016D105EB8502D3003344022283F85C2094
:10199000D7F8003523F0804343F00043C7F8003503
:1019A00006E005EB8502D3003344012283F85C2076
:1019B0000223A36005EB8502D300334493F85C2037
:1019C0002946304606F08CFEC2E705EB8502D300BF
:1019D0003344052283F85C20EAE7AA002A44D300B6
:1019E00033449A6D01329A65032A11D9AA002A4418
:1019F000D300334400229A65042283F85C20D7F890
:101A0000003523F0804343F00043C7F80035CFE7AB
:101A100005EB8502D3003344022283F85C20EEE715
:101A2000A36813F0800F19D1A36813F0100F8FD0A3
:101A300005EB8502D300334493F83F30032B25D0C8
:101A40000BB1022B07D105EB8502D30033440022F2
:101A50009A6533694BB31023A36079E7E36843F0D9
:101A60000203E360AB005919CA003244916D0131A1
:101A700091652B44DA003244062382F85D30294612
:101A8000306803F0C8FE8023A36061E705EB8502A0
:101A9000D300334400229A65E36843F00203E36015
:101AA0002946306803F0B7FED5E705EB8502D30081
:101AB0003344032283F85D20E36843F00203E360CC
:101AC0002946306803F0A7FEC5E7F8B5036803EBC5
:101AD000411303F5A064A26812F0040F24D10E464E
:101AE0000546A26812F0200F25D02023A36001EB49
:101AF0008102D3001A46034493F83D30012B19D1DB
:101B00008B000244002182F83D103344DA00024485
:101B1000022382F85C30E36843F00203E36031465D
:101B2000006803F078FE05E00423A360E36843F057
:101B30000203E360F8BDA26812F0400F34D1A2683E
:101B400012F4007F4AD1A26812F0010F51D1A268AD
:101B500012F0080F62D1A26812F0100F6FD08A0045
:101B60000A44D300034400229A65032283F85D20CF
:101B700093F83D306BB901EB8102D300034493F835
:101B80003C3033B901EB8102D3000344012283F8D6
:101B90003D20E36843F00203E3603146286803F028
:101BA0003AFE1023A360C5E78B005918CA0002440F
:101BB000042182F85D10012182F83D103344DA00DF
:101BC000024400239365E36843F00203E360314677
:101BD000006803F020FE4023A360ABE7E36843F016
:101BE0000203E360006803F016FE4FF40073A36085
:101BF000A0E78F007A18D300034400229A65E368B7
:101C000043F00203E360006803F005FE0123A360D4
:101C1000B919C800284480F85D308BE70823A36019
:101C2000E36843F00203E360006803F0F4FD06EBB1
:101C30008601C8002844052380F85D307AE7A26851
:101C400012F0800F39D1A26812F4806F46D1A268D9
:101C500012F0020F3FF46EAFE26822F00202E2607F
:101C600001EB8101CA001146024492F85D20012A6D
:101C700048D0032A5AD0042A6CD0052A72D0062AEA
:101C800001D0082A59D1B1003144CA002A44916DCB
:101C90000131916503296BD9282202FB06520021EC
:101CA0009165042182F85C10D3F8002522F080426F
:101CB00042F00042C3F800253FE0E36843F002032E
:101CC000E360006803F0A7FD06EB8601CB002B4420
:101CD000062283F85D208023A3602BE7E36843F0AE
:101CE0000203E360006803F096FD1023A3604FF445
:101CF0008063A36006EB8601CB002B44082283F8A7
:101D00005D2017E70B460344012283F85C2093F81B
:101D10003F30023BDBB293420FD80B46034493F8AB
:101D2000512082F0010283F8512006E006EB860282
:101D3000D3000344022283F85C200223A36006EB55
:101D40008602D3002B4493F85C203146284606F0E7
:101D5000C7FCEFE606EB8602D3000344022283F8B9
:101D60005C20EAE7282303FB060383F85C20E4E712
:101D7000282202FB0652022182F85C1094E7F8B593
:101D800004460568284603F0C9FB012800D0F8BDC9
:101D9000206803F0BFFB0028F9D0206803F0BAFBED
:101DA00010F4001F03D023684FF400125A6120681A
:101DB00003F0B0FB10F4801F03D023684FF48012AF
:101DC0005A61206803F0A6FB10F0806F03D02368EF
:101DD0004FF080625A61206803F09CFB10F0020F04
:101DE00002D0236802225A61206803F093FB10F0AE
:101DF000005F25D1206803F08DFB10F0807F31D18A
:101E0000206803F087FB10F0080F2FD1206803F043
:101E100081FB10F0007F30D1206803F07BFB10F0D5
:101E2000100FB4D02268936923F010039361204609
:101E3000FFF7C6FA2268936943F010039361A6E79F
:101E4000D5F8403423F02E03C5F84034204606F080
:101E500041FC0121206803F065FB23684FF000522C
:101E60005A61C7E72046FFF768FCC9E7204606F03D
:101E700025FC236808225A61C8E7206803F0C6FCE5
:101E80000746002604E0F1B22046FFF71EFE0136A9
:101E9000A368B34212D906F00F0327FA03F313F035
:101EA000010FF4D005EB4613D3F8003513F4004FBF
:101EB000E9D0F1B22046FFF7AAFCE8E723684FF02B
:101EC00000725A61A8E738B590F8B832012B0ED0ED
:101ED0000446012580F8B852006803F0A8FA2946A4
:101EE000206803F05EFB002084F8B80238BD0220B1
:101EF000FCE790F8B832012B0BD010B50446012353
:101F000080F8B832006803F0ADFD002084F8B80214
:101F100010BD0220704708B5006803F023FB08BD20
:101F200001EB8101CB00184490F85C00704701EB95
:101F30008101CB001844C06C704708B5006803F0FD
:101F4000DCFB08BD08B5006803F0CCFB08BD0368E6
:101F50005A6912F4806F11D06FF480625A610023C5
:101F60000363202280F83D2080F83E30026C42F06E
:101F70000402026480F83C30012070470020704762
:101F8000F8B506460C4617461D4622E0FEF7E2FF6E
:101F9000069BC01AA84200D8DDB900233363202273
:101FA00086F83D2086F83E30326C42F020023264E2
:101FB00086F83C3001201AE033685B6924EA0303A9
:101FC0009BB2B3FA83F35B099F420FD1B5F1FF3F98
:101FD000DCD1C4F30743012BEED033689B6924EABC
:101FE00003039BB2B3FA83F35B09EDE70020F8BD6E
:101FF000F8B504460D4616461F463CE01A6842F402
:1020000000721A6023686FF480625A6100232363B0
:10201000202284F83D2084F83E30226C42F00402F5
:10202000226484F83C30012033E0FEF793FFC01BAC
:10203000B04200D8FEB900232363202284F83D205B
:1020400084F83E30226C42F02002226484F83C3056
:1020500001201EE023685B6925EA03039BB200337D
:1020600018BF0123A3B123685A6912F4806FC5D148
:10207000B6F1FF3FD9D1C5F30743012BEAD023685E
:102080009B6925EA03039BB2003318BF0123E9E7EC
:102090000020F8BDF0B583B004460F4615461E4635
:1020A000C36A082B0DD0012B0BD013F5803F08D04D
:1020B000036B122B0AD10268136843F48073136018
:1020C00004E02268136843F48073136000962B4683
:1020D00000224FF001112046FFF752FF18BB236981
:1020E000B3F5804F0DD1236807F0FE071F6133461B
:1020F0002A4610492046FFF77BFF0346A0B1012383
:1021000012E0FB11226803F0060343F0F0031361B1
:1021100033462A4608492046FFF76AFF38B9236844
:10212000FFB21F61E3E70123184603B0F0BD0123AE
:10213000FAE700BF020001000800010070B5044684
:102140000D46164623685B6913F0800F1CD12046AC
:10215000FFF7FDFED0B9B5F1FF3FF3D0FEF7FAFE71
:10216000801BA84201D8002DECD10023236320223C
:1021700084F83D2084F83E30226C42F02002226434
:1021800084F83C30012000E0002070BD0120FCE715
:102190002DE9F04184B00446884616461F460B9D43
:1021A0000268136843F48073136000950A9B002251
:1021B0004FF00111FFF7E4FE20B10123184604B0EF
:1021C000BDE8F081226808F0FE0313612B460A9AED
:1021D00020492046FFF70CFF08B10123EEE700235A
:1021E000039323685A6903929B690393039B2A46CE
:1021F0000A992046FFF7A2FF034658B1236C042B2F
:1022000001D00123DAE72268136843F400731360F6
:102210000123D3E7012F0ED02368320A1A612A4620
:102220000A992046FFF78AFF034678B1236C042BF6
:1022300005D00123C2E72268F6B21661BEE7226824
:10224000136843F4007313600123B7E72268F6B202
:102250001661B3E7020001002DE9F04184B00446A5
:102260000E46174698460B9D0268136843F4806338
:1022700013600268136843F48073136000950A9B2F
:1022800000224FF00111FFF77BFE20B10123184619
:1022900004B0BDE8F081F6B2236806F0FE021A61D0
:1022A0002B460A9A38492046FFF7A2FE08B10123BF
:1022B000EDE70023039323685A6903929B69039314
:1022C000039B2A460A992046FFF738FF58B1236C32
:1022D000042B01D00123DAE72268136843F400736A
:1022E00013600123D3E7B8F1010F0DD12368FFB2CA
:1022F0001F612A460A992046FFF720FF20B3236C6E
:10230000042B1AD00123C2E723683A0A1A612A462D
:102310000A992046FFF712FF58B1236C042B01D015
:102320000123B4E72268136843F4007313600123A8
:10233000ADE72368FFB21F61DBE72268136843F44F
:10234000007313600123A2E72268136843F48073CB
:10235000136000950A9B00224FF001112046FFF701
:102360000FFE08B1012392E7236846F001061E61C3
:102370002B460A9A04492046FFF73AFE03460028F6
:1023800085D0012383E700BF0200010070B5044639
:102390000D46164623685B6913F0040F1CD12046D6
:1023A000FFF7D5FDD0B9B5F1FF3FF3D0FEF7D2FD71
:1023B000801BA84201D8002DECD1002323632022EA
:1023C00084F83D2084F83E30226C42F020022264E2
:1023D00084F83C30012000E0002070BD0120FCE7C3
:1023E00070B505460C4616462B685A6912F0400F28
:1023F00029D15A6912F0100F15D1FEF7ABFD801BE1
:10240000A04201D8002CEFD100232B63202285F8B5
:102410003D2085F83E302A6C42F020022A6485F87F
:102420003C30012070BD6FF010025A6100232B6315
:10243000202285F83D2085F83E302A6C2A6485F8F4
:102440003C300120EEE70020ECE70000002800F01F
:102450003181F8B504460368984A93420CD002F5DE
:102460008062934208D002F58062934204D040F229
:10247000BB11934805F085FE6368013B914A934286
:1024800000F29B80A3681BB1B3F5804F40F09B80A6
:10249000E36823F47F7323F00303002B40F099805B
:1024A0002369B3F5804F03D0B3F5404F40F09780D8
:1024B0006369012B00F29980A36933F0FE0340F0B9
:1024C0009A80E36913B1402B40F09B80236A13B1DB
:1024D000802B40F09C8094F83D30002B00F09D80D4
:1024E000242384F83D302268136823F0010313602D
:1024F00001F02EFB6268744B9A4200F29480734B99
:1025000098428CBF00230123002B40F0D580704BF4
:10251000A3FB00239B0C21684A6822F03F021A4368
:102520004A6025682A6A22F03F02666866498E4240
:102530007FD8013313432B622568E96921F44F41A9
:1025400021F0FF016368604A93427CD801385B0048
:10255000B0FBF3F30133C3F30B03042B38BF0423A5
:102560000B43EB6121680B6823F0C003E269206A2A
:10257000024313430B6021688B6823F4034323F069
:10258000FF032269E068024313438B602168CB6834
:1025900023F0FF036269A06902431343CB60226802
:1025A000136843F00103136000202064202384F8A3
:1025B0003D30206384F83E00F8BD4FF4DE714048A2
:1025C00005F0DFFD5EE740F2BD113D4805F0D9FDA5
:1025D0005EE74FF4DF713A4805F0D3FD60E740F263
:1025E000BF11374805F0CDFD62E74FF4E071344884
:1025F00005F0C7FD60E740F2C111314805F0C1FDAB
:102600005FE74FF4E1712E4805F0BBFD5EE740F255
:10261000C3112B4805F0B5FD5DE784F83C3020463A
:1026200005F024FA5CE72B4B98428CBF0023012372
:102630006AE74FF4967101FB03F32749A1FB0313EB
:102640009B09013376E7A268BAB9461E03EB43073C
:10265000B6FBF7F60136C6F30B06B6FA86F6760930
:1026600036BBC2B9013803EB4303B0FBF3F30133CC
:10267000C3F30B0242F4004372E7461E03EB8307E9
:1026800007EB8707B6FBF7F60136C6F30B06B6FA7B
:1026900086F67609E4E7013803EB830303EB830353
:1026A000B0FBF3F20132C2F30B0242F4404357E7AE
:1026B000012355E70120704701207DE700540040C9
:1026C000C0AA00087F1A0600A08601007F841E00B1
:1026D00083DE1B43FF083D00D34D62102DE9F0411E
:1026E00084B004460E4690461F46FEF733FC94F82D
:1026F0003D30DBB2202B04D00226304604B0BDE8CA
:10270000F08105460090192301224F492046FFF72A
:1027100037FC002840F0918094F83C30012B00F009
:102720008E80012384F83C3023681A6812F0010F70
:1027300003D11A6842F001021A602268136823F478
:1027400000631360212384F83D30102384F83E3069
:1027500000232364C4F824806785638D23853B4B65
:10276000E3622B460A9A31462046FFF793FC064661
:10277000002866D10023039323685A6903929B695A
:102780000393039B12E0236C042B01D00126B4E7D2
:102790002268136843F4007313600126ADE72A46EC
:1027A0000A992046FFF7F2FD00282CD1238D002B3B
:1027B00035D02A460A992046FFF7C0FC0028E2D10E
:1027C000626A236812781A61616A4B1C6362638DC6
:1027D000013B9BB26385238D013B9BB2238522681D
:1027E000506910F0040FDAD0002BD8D04B78136169
:1027F000636A01336362638D013B9BB26385238D02
:10280000013B2385CBE7236C042B01D0012674E721
:102810002268136843F40073136001266DE7226891
:10282000136843F400731360202384F83D300023C1
:1028300084F83E3084F83C305FE702265DE70226EC
:102840005BE7012659E700BF020010000000FFFF10
:102850002DE9F04182B004460F4690461E46FEF731
:1028600079FB0546012E01D0102E09D194F83D3098
:10287000DBB2202B0AD00223184602B0BDE8F0815B
:1028800040F66D114F4805F07CFCEFE700951923E9
:1028900001224D492046FFF773FB002840F08B8052
:1028A00094F83C30012B00F08880012384F83C3000
:1028B00023681A6812F0010F03D11A6842F001026E
:1028C0001A602268136823F400631360212384F8DC
:1028D0003D30402384F83E3000232364089B63622C
:1028E000BDF824306385638D2385384BE362019501
:1028F0000A9B00933346424639462046FFF748FC80
:1029000000285CD1238D002B34D02A460A9920461A
:10291000FFF714FC10BB626A236812781A61616ABF
:102920004B1C6362238D013B9BB22385628D013A70
:1029300092B262852268506910F0040FE2D0002B39
:10294000E0D04B781361636A01336362238D013BEE
:102950002385638D013B9BB26385D3E7236C042BF6
:1029600001D0012388E72268136843F400731360E1
:10297000012381E72A460A992046FFF707FD03460F
:1029800058B1236C042B01D0012375E7226813682A
:1029900043F40073136001236EE721680A6842F470
:1029A00000720A60202284F83D20002284F83E2034
:1029B00084F83C2060E702235EE702235CE7012302
:1029C0005AE700BFC0AA0008020010000000FFFF85
:1029D0002DE9F04186B004460F4690461E46FEF7AC
:1029E000B9FA0546012E01D0102E09D194F83D30D8
:1029F000DBB2202B0AD00226304606B0BDE8F081BB
:102A000040F6E8119C4805F0BCFBEFE70095192360
:102A100001229A492046FFF7B3FA002840F03D8191
:102A200094F83C30012B00F03A81012384F83C30CB
:102A300023681A6812F0010F03D11A6842F00102EC
:102A40001A602268136823F400631360222384F859
:102A50003D30402384F83E30002323640C9B6362A6
:102A6000BDF834306385638D2385854BE362019522
:102A70000E9B00933346424639462046FFF7ECFB57
:102A80000646002840F00D81238D5BB90293236830
:102A90005A6902929A690292029A1A6842F4007282
:102AA0001A6072E0012B0AD0022B1AD00023059382
:102AB00023685A6905929B690593059B65E0226826
:102AC000136823F4806313600023039323685A6917
:102AD00003929A690392039A1A6842F400721A6088
:102AE00053E02268136823F480631360226813683C
:102AF00043F4006313600023049323685A6904922B
:102B00009B690493049B40E02A460E992046FFF7F8
:102B100067FC002840F0C78023681A69636A1A704E
:102B2000636A01336362238D013B2385638D013B1F
:102B30009BB2638529E000950E9B002251492046F7
:102B4000FFF71EFA002840F0B0802268136843F4B3
:102B50000073136023681A69636A1A70626A531CEF
:102B60006362238D013B2385638D013B9BB26385AB
:102B700023681B695370636A01336362238D013BD1
:102B80002385638D013B9BB26385238D002B7BD016
:102B9000032B49D8012BB7D0022BCCD000950E9B2C
:102BA000002238492046FFF7EBF900287FD1226840
:102BB000136823F48063136023681A69636A1A70C8
:102BC000636A01336362238D013B2385638D013B7F
:102BD0009BB2638500950E9B00222A492046FFF791
:102BE000CFF9002865D12268136843F4007313609D
:102BF00023681A69636A1A70626A531C6362238DC0
:102C0000013B2385638D013B9BB2638523681B6970
:102C10005370636A01336362238D013B2385638DA7
:102C2000013B9BB26385B0E72A460E992046FFF729
:102C3000D7FB00283FD123681A69636A1A70626A59
:102C4000531C6362238D013B2385638D013B9BB243
:102C500063852368596911F0040F96D01B6953707E
:102C6000636A01336362238D013B2385638D013BDE
:102C70009BB2638589E700BFC0AA0008020010006C
:102C80000000FFFF04000100202384F83D300023F2
:102C900084F83E3084F83C30AEE60226ACE60226EC
:102CA000AAE60126A8E60126A6E60126A4E6012654
:102CB000A2E60126A0E601269EE600BF002800F05D
:102CC0003E8170B5044603689E4A934214D0A2F533
:102CD0007842934210D002F5806293420CD002F504
:102CE0007842934208D002F5E052934204D04FF468
:102CF0008971954805F045FA636843B1B3F5807F63
:102D000005D0B3F5007F02D0B3F5407F7FD1A36833
:102D10003BB1102B05D0202B03D0302B01D0B02B92
:102D20007BD1E368012B03D9032B01D0052B7AD18A
:102D30002369B3F5007F01D0002B7AD16369A3F535
:102D4000FA51824A914201D9022B78D1A3690BB181
:102D5000082B7AD1E369012B7DD894F84130002B00
:102D60007FD0022284F841202168CB6923F47B6361
:102D700023F00F03CB6123681A626369934200F06A
:102D80009280E368002B74D11025A368202B00D813
:102D90006D00012001F062F82369B3F5007F6AD06D
:102DA000B0FBF5F000EB800043006269B3FBF2F387
:102DB0000533674AA2FB0323DB0803F001029B1AD9
:102DC0005B081202991EFD296FD821690A43216808
:102DD00013430B622168CB6923F47B6323F00F0359
:102DE0006268A0680243E0680243A069024313439B
:102DF00043F40063CB61236A012B5CD8236A012B67
:102E00005FD000206064012384F8413070BD40F23F
:102E100013114D4805F0B5F979E74FF48A714A4826
:102E200005F0AFF97DE740F21511474805F0A9F923
:102E30007EE74FF48B71444805F0A3F97EE740F23A
:102E40001711414805F09DF980E74FF48C713E4819
:102E500005F097F97EE740F219113B4805F091F92A
:102E60007BE784F840303B4B6363204604F0BEFEB2
:102E700077E7202589E7E36853B1AD00B0FBF5F0B3
:102E800000EB800043006269B3FBF2F3053390E787
:102E9000ED00B0FBF5F000EB800043006269B3FB8E
:102EA000F2F3053385E700228CE7636C43F01003EF
:102EB00063640120AAE74FF4DA71234805F061F951
:102EC0009CE7254B63632268244B9A421FD04FF046
:102ED0004022D36923F47B6323F00F03D36122687C
:102EE0001E4B9A4215D04FF0402302221A622268EC
:102EF0001A4B9A4210D04FF04021CA6992B26368CF
:102F0000B3F5007F0AD0C3B94FF4807608E0144AC5
:102F1000DFE7A3F58063E8E71149EEE74FF4807639
:102F2000A068E568238B2B439BB203439BB23343DA
:102F3000134343F40063CB6163E70026F0E701200D
:102F4000704700BF00300140F8AA0008C0CE020060
:102F5000CDCCCCCCD72F0008E131000800380040A0
:102F600000340040704708B5426A03681288DA608E
:102F7000436A02334362438D013B9BB24385438DD9
:102F80009BB203B108BD0268536823F0A0035360ED
:102F9000012380F84130FFF7E5FFF3E7704708B5FC
:102FA0000368DA68C36A1A80C36A0233C362438E55
:102FB000013B9BB24386438E9BB203B108BD0268BE
:102FC000536823F060035360012380F84130FFF71A
:102FD000E5FFF3E7704710B584B0044602689368D4
:102FE000039390F84130DBB2042B06D094F84130C3
:102FF000DBB2032B2CD004B010BD039B13F0010FE8
:1030000003D0536813F0400F1FD1039B13F0400F00
:10301000ECD023685A6812F0200FE7D05A6822F0EB
:1030200060025A60002301932368DA6801929B686A
:103030000193019B012384F84130636C43F0020348
:1030400063642046FFF7C6FFD0E7FFF7A8FFDCE781
:10305000039B13F0020F04D023685B6813F0800F0A
:103060001DD1039B13F0080FC5D023685A6812F0D6
:10307000200FC0D05A6822F0A0025A6000230293A9
:1030800023689B680293029B012384F84130636CA0
:1030900043F0040363642046FFF79CFFABE7204640
:1030A000FFF761FFDDE7704708B5436A9A1C42628B
:1030B00002681B88D360438D013B9BB24385438DDF
:1030C0009BB23BB90268536823F0A0035360438E60
:1030D0009BB203B108BD012380F84130FFF7E3FF45
:1030E000F8E7000008B50268144B9A421BD04FF075
:1030F0004023DA68C36A991CC1621A80438E013B7F
:103100009BB24386438E9BB263B902680B4B9A42D3
:103110000CD04FF04022536823F060035360438D7E
:103120009BB22BB108BDA3F58063E2E7044AF2E746
:10313000012380F84130FFF7B6FFF3E70038004085
:103140000034004008B5436A9A1C42621A8801683C
:10315000124B994217D04FF04023DA60438D013B68
:103160009BB24385438D9BB263B902680B4B9A4275
:103170000CD04FF04022536823F0A0035360438EDD
:103180009BB22BB108BDA3F58063E6E7044AF2E7E2
:10319000012380F84130FFF786FFF3E70038004055
:1031A0000034004008B50368DA68C36A991CC1623C
:1031B0001A80438E013B9BB24386438E9BB23BB940
:1031C0000268536823F060035360438D9BB203B1E0
:1031D00008BD012380F84130FFF765FFF8E70000E4
:1031E00010B586B0044603689A680592704A934207
:1031F0006FD04FF04022916804915B68039353684D
:1032000002936368B3F5007F01D0002B70D1059B5A
:1032100013F0020F03D0039B13F0800F5CD1049BCB
:1032200013F0010F03D0029B13F0400F58D1049B01
:1032300013F0400F24D0029B13F0200F20D02268FF
:103240005B4B9A4250D04FF04022536823F060030A
:1032500053602268536823F0A00353600023009357
:103260002368DA6800929B680093009B012384F82E
:103270004130636C43F0020363642046FFF7AAFE0B
:10328000059B13F0080F22D0039B13F0200F1ED0D4
:103290002268536823F0A00353602268444B9A428B
:1032A00024D04FF04022536823F060035360002382
:1032B000019323689B680193019B012384F84130AB
:1032C000636C43F0040363642046FFF783FE06B09B
:1032D00010BDA2F580628EE72046FFF7E5FE9EE76F
:1032E0002046FFF7FFFEA2E7324AAEE7314ADAE7AF
:1032F000049B13F0020F03D0029B13F0800F4AD1FE
:10330000059B13F0010F03D0039B13F0400F46D130
:10331000059B13F0400F1CD0039B13F0200F18D017
:103320002268536823F0600353602268204B9A425E
:1033300039D04FF04022536823F0A003536001239B
:1033400084F84130636C43F0020363642046FFF766
:1033500041FE049B13F0080FB9D0029B13F0200F1D
:10336000B5D02268124B9A421FD04FF040225368CA
:1033700023F0A00353602268536823F06003536076
:10338000012384F84130636C43F0040363642046F6
:10339000FFF720FE9BE72046FFF7D4FEB0E720466C
:1033A000FFF700FFB4E7034AC5E7024ADFE700BFC3
:1033B0000038004000340040002800F03B8270B527
:1033C00082B0044603680F2B39D8236813F0010F2D
:1033D0004DD063682BB1B3F5803F02D0B3F5A02F79
:1033E00032D1A54B9B6803F00C03042B36D0A24BC3
:1033F0009B6803F00C03082B2BD06368B3F5803F68
:103400005FD0B3F5A02F62D09B4B1A6822F48032B4
:103410001A601A6822F480221A606368002B60D058
:10342000FDF798FD0546944B1B6813F4003F1ED131
:10343000FDF790FD401B6428F5D90320FFE1E8214A
:103440008E4804F09EFEC0E7ED218C4804F099FE02
:10345000C7E7894B5B6813F4800FCED0864B1B689F
:1034600013F4003F03D06368002B00F0E58123686C
:1034700013F0020F67D0E368012B41D823691F2B9B
:1034800044D87D4B9B6813F00C0F4AD07A4B9B6855
:1034900003F00C03082B3FD0E368002B77D0784B68
:1034A00001221A60FDF756FD0546734B1B6813F0A9
:1034B000020F63D1FDF74EFD401B0228F5D9032012
:1034C000BDE16D4A136843F480331360A5E76A4B8E
:1034D0001A6842F480221A601A6842F480321A6034
:1034E0009BE7FDF737FD0546634B1B6813F4003F70
:1034F000BDD0FDF72FFD401B6428F5D903209EE1C8
:1035000040F21F115D4804F03CFEB7E74FF49071A4
:103510005A4804F036FEB4E7574B5B6813F4800F4B
:10352000BAD1554B1B6813F0020F04D0E368012B8E
:1035300001D0012083E1504A136823F0F803216988
:1035400043EAC1031360236813F0080F49D063698D
:10355000012B2ED8636993B34A4B01221A60FDF701
:10356000F9FC0546444B5B6F13F0020F39D1FDF7B0
:10357000F1FC401B0228F5D9032060E13E4A1368A4
:1035800023F0F803216943EAC1031360DBE73C4BF6
:1035900000221A60FDF7DEFC0546374B1B6813F06E
:1035A000020FD0D0FDF7D6FC401B0228F5D903202E
:1035B00045E14FF4B071314804F0E3FDCAE7314B07
:1035C00000221A60FDF7C6FC05462B4B5B6F13F01B
:1035D000020F06D0FDF7BEFC401B0228F5D90320E0
:1035E0002DE1236813F0040F00F08780A368012BFE
:1035F00001D9052B38D1204B1B6C13F0805F39D1DA
:10360000002301931C4B1A6C42F080521A641B6C0D
:1036100003F080530193019B01251B4B1B6813F49E
:10362000807F33D0A368012B44D0052B48D0124BA8
:103630001A6F22F001021A671A6F22F004021A6749
:10364000A368002B46D0FDF785FC06460A4B1B6F8E
:1036500013F0020F4FD1FDF77DFC801B41F2883340
:103660009842F3D90320EAE04FF4C671034804F00E
:1036700088FDC0E70025D0E70038024030AB0008E5
:1036800000004742800E4742007000406E4A1368B7
:1036900043F480731360FDF75DFC06466A4B1B68BC
:1036A00013F4807FBED1FDF755FC801B0228F5D9AD
:1036B0000320C4E0654A136F43F001031367BFE7BB
:1036C000624B1A6F42F004021A671A6F42F001024D
:1036D0001A67B5E7FDF73EFC06465C4B1B6F13F01F
:1036E000020F08D0FDF736FC801B41F28833984268
:1036F000F3D90320A3E0002D3AD1A369022B3DD8D2
:10370000A369002B00F09A80504A926802F00C02E4
:10371000082A00F09680022B78D1E36913B1B3F543
:10372000800F31D1236A3F2B34D8636AC03BF02B22
:1037300036D8A36A022B05D0042B03D0062B01D068
:10374000082B33D1E36A023B0D2B35D8404B0022C6
:103750001A60FDF7FFFB05463C4B1B6813F0007F2A
:1037600030D0FDF7F7FB401B0228F5D9032066E0B7
:10377000364A136C23F080531364BEE740F2CF1136
:10378000344804F0FEFCBBE74FF4EC71314804F020
:10379000F8FCC7E740F2D9112E4804F0F2FCC4E768
:1037A0004FF4ED712B4804F0ECFCC2E740F2DB1162
:1037B000284804F0E6FCC5E74FF4EE71254804F014
:1037C000E0FCC3E7E369226A1343626A43EA8213B7
:1037D000A26A5208013A43EA0243E26A43EA0263F8
:1037E0001A4A53601A4B01221A60FDF7B3FB0446D4
:1037F000164B1B6813F0007F06D1FDF7ABFB001BD7
:103800000228F5D903201AE0002018E0104B00220E
:103810001A60FDF79FFB04460C4B1B6813F0007FFA
:1038200006D0FDF797FB001B0228F5D9032006E020
:10383000002004E001207047012000E0002002B0D9
:1038400070BD0120FBE700BF00700040003802405F
:103850006000474230AB0008324B9B6803F00C031A
:10386000042B5CD0082B01D02F4870472DE9F04B7A
:103870002C4B5A6802F03F025B6813F4800F2BD088
:10388000284B5B68C3F388131E4600275C010025A4
:10389000E41A65EB0705A90141EA9461A001001B48
:1038A00061EB0501CB0043EA5073C400A01943EB60
:1038B00007014B0243EAD053440220461946002335
:1038C000FDF7FAF8174B5B68C3F3014301335B0064
:1038D000B0FBF3F0BDE8F08B124B5B68C3F38813C9
:1038E0001E4600275C010025E41A65EB0705A901C7
:1038F00041EA9461A001001B61EB0501CB0043EAA2
:103900005073C400A01943EB07018B0243EA9053A4
:103910008402204619460023FDF7CEF8D2E703487B
:10392000704700BF003802400024F40000127A0003
:10393000002800F0F98070B504460D460368013B8D
:103940000E2B11D8072D15D8794B1B6803F00F03E8
:10395000AB4215D2EBB2764A1370136803F00F0333
:10396000AB420DD0012070BD4FF41071714804F0CE
:1039700008FCE7E740F241216E4804F002FCE3E76F
:10398000236813F0020F29D013F0040F04D06A4A01
:10399000936843F4E0539360236813F0080F04D056
:1039A000654A936843F460439360A3687BB1802BBE
:1039B0000DD0902B0BD0A02B09D0B02B07D0C02B53
:1039C00005D0D02B03D0E02B01D0F02B33D15A4AB5
:1039D000936823F0F003A1680B439360236813F00E
:1039E000010F42D06368032B2BD86368012B2ED0C4
:1039F0009A1E012A32D9504A126812F0020F00F0C2
:103A000095804D498A6822F0030213438B60FDF7CD
:103A1000A1FA0646484B9B6803F00C036268B3EBBF
:103A2000820F22D0FDF796FA801B41F2883398422C
:103A3000F0D9032097E74FF419713E4804F0A1FB39
:103A4000C5E740F26B213B4804F09BFBCDE73A4AC7
:103A5000126812F4003FD4D1012084E7364A12687C
:103A600012F0007FCDD101207DE7314B1B6803F0C0
:103A70000F03AB4209D9EAB22D4B1A701B6803F051
:103A80000F03AB4201D001206DE7236813F0040F50
:103A900014D0E3685BB1B3F5805F08D0B3F5A05FE5
:103AA00005D0B3F5C05F02D0B3F5E05F30D1224A54
:103AB000936823F4E053E1680B439360236813F0A9
:103AC000080F15D023695BB1B3F5805F08D0B3F55B
:103AD000A05F05D0B3F5C05F02D0B3F5E05F1DD1A4
:103AE000154A936823F46043216943EAC103936054
:103AF000FFF7B2FE104B9B68C3F303130F4AD35C6E
:103B0000D8400F4B18600020FDF7DAF900202AE7B3
:103B100040F2A921074804F034FBC8E74FF42C71A8
:103B2000044804F02EFBDBE70120704701201AE770
:103B3000003C024030AB000800380240F8A9000801
:103B400028000020014B1868704700BF28000020A3
:103B500008B5FFF7F7FF044B9B68C3F38223034AC2
:103B6000D35CD84008BD00BF0038024008AA000856
:103B700008B5FFF7E7FF044B9B68C3F34233034AE2
:103B8000D35CD84008BD00BF0038024008AA000836
:103B900030B583B004460368013B0E2B21D823685F
:103BA00013F0050F51D0E368023B052B1FD8A36823
:103BB000C03BF02B21D86368023B3D2B23D8A04BA0
:103BC00000221A60FDF7C6F905469E4B1B6813F0EC
:103BD000006F1ED0FDF7BEF9401B0228F5D9032067
:103BE0000DE140F6CD11984804F0CBFAD7E740F646
:103BF000D411954804F0C5FAD9E740F6D51192489A
:103C000004F0BFFAD7E740F6D7118F4804F0B9FAAD
:103C1000D5E76368A26843EA8213E26843EA027365
:103C2000884AC2F88430864B01221A60FDF792F967
:103C30000546844B1B6813F0006F06D1FDF78AF927
:103C4000401B0228F5D90320D9E0236813F0020FA6
:103C500000F0CD802369B3F5807F7ED0B3F5007F7F
:103C60007BD07A4A934278D002F58032934274D066
:103C700002F58032934270D002F5803293426CD0CC
:103C800002F58032934268D002F58032934264D0CC
:103C900002F58032934260D002F5803293425CD0CC
:103CA00002F58032934258D002F58032934254D0CC
:103CB00002F58032934250D002F5803293424CD0CC
:103CC00002F58032934248D002F58032934244D0CC
:103CD00002F58032934240D002F5803293423CD0CC
:103CE00002F58032934238D002F58032934234D0CC
:103CF00002F58032934230D002F5803293422CD0CC
:103D000002F58032934228D002F58032934224D0CB
:103D100002F58032934220D002F5803293421CD0CB
:103D200002F58032934218D002F58032934214D0CB
:103D300002F58032934210D002F5803293420CD0CB
:103D400002F58032934208D002F58032934204D0CB
:103D500040F606213C4804F014FA00230193394B45
:103D60001A6C42F080521A641B6C03F0805301936A
:103D7000019B374A136843F480731360FDF7EAF838
:103D80000546334B1B6813F4807F06D1FDF7E2F83C
:103D9000401B0228F5D9032031E02A4B1B6F13F496
:103DA000407312D0226902F440729A420DD0254B22
:103DB0001A6F22F440722749012008600020086031
:103DC0001A671B6F13F0010F1BD1236903F44072B4
:103DD000B2F5407F26D01B4A936823F4F813936012
:103DE00018490B6F2269C2F30B0213430B67236858
:103DF00013F0080F21D0227D174B1A60002003B06A
:103E000030BDFDF7A7F805460E4B1B6F13F0020FF0
:103E1000DBD1FDF79FF8401B41F288339842F3D97C
:103E20000320ECE707498A6822F4F81223F0704374
:103E300023F4407313438B60D2E70020DFE700BF19
:103E4000680047420038024068AB000800030200E7
:103E500000700040400E4742E011474201282CD13B
:103E6000184B9B6813F4000303D0012B27D116488D
:103E70007047144B5B6813F4800F15D0114BD3F8C7
:103E8000843003F03F031148B0FBF3F00D4AD2F841
:103E90008430C3F3881300FB03F0D2F88430C3F3FB
:103EA0000273B0FBF3F07047064BD3F8843003F095
:103EB0003F030748B0FBF3F0E8E70020704700201D
:103EC000704700BF003802400080BB0000127A003B
:103ED0000024F40038B504460268D36823F0A00338
:103EE000D360FDF737F805462368DB6813F0200F31
:103EF00007D1FDF72FF8401BB0F57A7FF4D90320E6
:103F000000E0002038BD38B50368DA6812F0400FD1
:103F100001D0002038BD04464FF0FF32DA60FDF7D3
:103F200019F805462368DB6813F0400F07D1FDF749
:103F300011F8401BB0F57A7FF4D90320EAE700209E
:103F4000E8E7000038B5002800F09D80044643688B
:103F5000402B01D0002B5FD1A3687F2B61D8E36891
:103F6000B3F5004F62D2236943B1B3F5001F05D00A
:103F7000B3F5800F02D0B3F5C00F5CD1636913B104
:103F8000B3F5801F5CD1A36913B1B3F5802F5CD169
:103F9000637F002B5ED0022363772368CA225A62B4
:103FA000236853225A622046FFF7ADFF05460028DA
:103FB00055D12268936823F4E00323F04003936013
:103FC00021688A6863682069034360690343134377
:103FD0008B602368E2681A6122681369A16843EA6A
:103FE000014313612268D36823F08003D360236800
:103FF0009B6813F0200F3AD02268136C23F48023BF
:1040000013642268136CA1690B4313642368FF22B5
:104010005A620123637728E0F8211C4804F0B1F8C4
:104020009AE7F921194804F0ACF898E7FA21174803
:1040300004F0A7F897E7FB21144804F0A2F89DE7E5
:10404000FC21124804F09DF89DE7FD210F4804F083
:1040500098F89DE72377204604F0FEF89BE7236855
:10406000FF225A62042363770125284638BD204683
:10407000FFF730FF0028BFD02368FF225A620423D5
:1040800063770125F1E70125EFE700BFA4AB000846
:10409000002302E001330A38C0B20928FAD81B0114
:1040A000DBB218437047030903EB83035A0000F0A7
:1040B0000F001044C0B27047F8B504460D461646CE
:1040C000012A2BD8EB68B3F5003F03D0B3F5803F4E
:1040D00000D04BBB2B6913B1B3F5802F2AD1237FBE
:1040E000012B00F0F0800123237702236377002E59
:1040F00040F0898023689B6813F0400F26D02B780E
:10410000013BDBB20B2B1BD8EB7823B3402B22D027
:1041100040F2E1216D4804F034F81CE040F2D32174
:104120006A4804F02EF8CDE74FF43571674804F083
:1041300028F8CFE740F2D521644804F022F8CEE712
:104140004FF43871614804F01CF8DDE70023EB7090
:104150002B78172B45D86B783B2B48D8AB783B2B6B
:104160004BD82878FFF794FF06046878FFF790FF94
:1041700046EA0026A878FFF78BFF3043EE7840EA46
:1041800006462368CA225A62236853225A6220468E
:10419000FFF7B9FE074600287DD1236806F07F3679
:1041A00026F0FE461E602268936823F48023936005
:1041B00021688B68EA682869024313438B60226890
:1041C000D36823F08003D36023689B6813F0200F2B
:1041D0006BD02368FF225A62012363770023237781
:1041E00061E040F2E621394803F0CBFFB3E74FF43A
:1041F0003A71364803F0C5FFB0E740F2E921334891
:1042000003F0BFFFADE723689B6813F0400F14D0A5
:104210002878FFF748FF08B10C2804D94FF43D7106
:104220002A4803F0AEFFEB7873B1402B0CD040F27C
:10423000F521264803F0A5FF06E00023EB7028785F
:10424000FFF731FF172814D86878FFF72CFF3B28B9
:1042500015D8A878FFF727FF3B2816D82B78687861
:10426000000240EA0340AB781843EE7840EA064685
:1042700087E740F2FA21154803F083FFE4E74FF4A3
:104280003F71124803F07DFFE3E740F2FD210F4844
:1042900003F077FFE2E72368FF225A620423637783
:1042A0000023237701273846F8BD2046FFF712FE8A
:1042B00000288ED02368FF225A62042363770023EC
:1042C00023770127EFE70227EDE700BFA4AB000843
:1042D00070B504460E461546012A58D8237F012B97
:1042E00000F0B78001232377022363773DB9737809
:1042F00013F0100F03D003F0EF030A337370337819
:10430000013BDBB2062B48D8002D5ED1F378632B3E
:1043100049D87378013BDBB20B2B4AD8B378013B09
:10432000DBB21E2B4BD8F078FFF7B2FE0504707895
:10433000FFF7AEFE45EA0025B078FFF7A9FE284357
:10434000357840EA45352368CA225A6223685322E9
:104350005A622046FFF7D7FD0646002861D1236840
:1043600025F07F4525F0C0055D602268D36823F005
:104370008003D36023689B6813F0200F5BD0236811
:10438000FF225A62012363770023237751E040F232
:104390008331314803F0F5FEA0E740F28F312E481B
:1043A00003F0EFFEB0E740F293312B4803F0E9FE53
:1043B000AFE74FF46571284803F0E3FEAEE740F243
:1043C0009531254803F0DDFEADE7F078FFF76BFE91
:1043D000632820D87078FFF766FE08B10C2804D94E
:1043E00040F29F311C4803F0CCFEB078FFF75BFE33
:1043F00008B11F2804D94FF46871174803F0C1FEB3
:10440000F5787078000240EA0540B57828433578A1
:1044100040EA453597E740F29E310F4803F0B1FE80
:10442000D8E72368FF225A620423637700232377A7
:104430000126304670BD2046FFF74CFD00289ED077
:104440002368FF225A62042363770023237701261F
:10445000EFE70226EDE700BFA4AB0008F8B505467C
:104460000C461646012A66D8636AB3F5807F02D0EF
:10447000B3F5007F65D1636913F07F3F67D1E369CE
:1044800013B1B3F1804F68D16368B3F5004F6AD2BE
:10449000A3698BB3B3F1807F2ED0B3F1007F2BD013
:1044A000B3F1407F28D0B3F1806F25D0B3F1A06F76
:1044B00022D0B3F1C06F1FD0B3F1E06F1CD0B3F1C5
:1044C000006F19D0B3F1106F16D0B3F1206F13D075
:1044D000B3F1306F10D0B3F1406F0DD0B3F1506F26
:1044E0000AD0B3F1606F07D0B3F1706F04D040F21F
:1044F0002E41B34803F045FE2B7F012B00F0728163
:1045000001232B7702236B77002E40F0B9802B68B4
:104510009B6813F0400F32D02378013BDBB20B2BAA
:1045200027D8E37883B3402B2ED040F23A41A448F9
:1045300003F027FE28E040F22941A14803F021FEC4
:1045400092E740F22A419E4803F01BFE93E740F2B7
:104550002B419B4803F015FE91E740F22C4198480F
:1045600003F00FFE90E740F22D41954803F009FE5D
:104570008EE740F23941924803F003FED1E7002371
:10458000E3702378172B57D863783B2B5AD8A3783E
:104590003B2B5DD8E369002B66D194F82030013BBA
:1045A000DBB21E2B5AD82078FFF772FD0604607824
:1045B000FFF76EFD46EA0026A078FFF769FD064387
:1045C000E07846EA004694F82000FFF761FD46EAED
:1045D0000066E0690643606906436768A3691F4394
:1045E0002B68CA225A622B6853225A62636AB3F557
:1045F000807F00F0BB802A68936823F40073936087
:104600002A68936823F400539360FCF7A3FC0446E4
:104610002B68DA6812F0020F40F0D480FCF79AFCA5
:10462000001BB0F57A7FF3D92B68FF225A62032072
:10463000687700232B77D4E040F23F41604803F0D5
:10464000A0FDA1E740F241415D4803F09AFD9EE7DD
:1046500040F242415A4803F094FD9BE740F2464144
:10466000574803F08EFD9EE794F82030013BDBB203
:10467000062B98D940F24A41514803F082FD92E757
:104680002B689B6813F0400F14D02078FFF70BFDC8
:1046900008B10C2804D940F25941494803F071FD92
:1046A000E37873B1402B0CD040F25A41444803F0F8
:1046B00068FD06E00023E3702078FFF7F4FC17287C
:1046C0002AD86078FFF7EFFC3B282BD8A078FFF7BB
:1046D000EAFC3B282CD8E36983BB94F82000FFF761
:1046E000E2FC08B11F2804D940F26741344803F0C6
:1046F00048FD23786678360246EA0346A3781E43CF
:10470000E37846EA034694F8203046EA0366E36914
:104710001E436069064360E740F25F41284803F0AA
:1047200030FDCEE740F26241254803F02AFDCDE797
:1047300040F26341224803F024FDCCE794F82000C6
:10474000FFF7B1FC0128D4D00228D2D00328D0D062
:104750000428CED00528CCD00628CAD00728C8D037
:1047600040F26B41164803F00CFDC2E72A689368DB
:1047700023F4807393602A68936823F480539360D2
:10478000FCF7E8FB04462B68DA6812F0010F0DD144
:10479000FCF7E0FB001BB0F57A7FF4D92B68FF2211
:1047A0005A620320687700232B771AE0DE612B68BA
:1047B0005F642A68936843F4807393600AE000BFE3
:1047C000A4AB00081E622B689F642A68936843F4B8
:1047D000007393602B68FF225A6201236B770020DD
:1047E0002877F8BD0220FCE7002800F0C88010B54B
:1047F00004460368634A934214D0A2F57842934278
:1048000010D002F5806293420CD002F578429342B8
:1048100008D002F5E052934204D040F23F115A48CA
:1048200003F0AFFC636813B1B3F5827F6BD1A3686B
:104830002BB1B3F5806F02D0B3F5004F69D1E368B7
:10484000B3F5006F01D0002B69D1A369B3F5007FE8
:1048500003D013B1B3F5802F67D1E3696BB1082B97
:104860000BD0102B09D0182B07D0202B05D0282BCC
:1048700003D0302B01D0382B5DD1236A0BB1802BB4
:104880005FD1636A0BB1102B61D1636A33B92369BD
:104890000BB1022B61D16369012B64D80023A362A1
:1048A00094F85130002B64D0022384F851302268F0
:1048B000136823F0400313606368A2681343E2683F
:1048C00013432269134362691343A26902F400721D
:1048D0001343E2691343226A1343A16A22680B431C
:1048E0001360638B03F00403616A22680B43536017
:1048F0002268D36923F40063D3610020606501233B
:1049000084F8513010BD4FF4A0711F4803F039FCFA
:104910008DE740F241111C4803F033FC8FE74FF460
:10492000A171194803F02DFC8FE740F2431116489E
:1049300003F027FC91E74FF4A271134803F021FC28
:104940009BE740F24511104803F01BFC99E74FF438
:10495000A3710D4803F015FC97E740F249110A488E
:1049600003F00FFC97E74FF4A571074803F009FC2B
:1049700094E784F85030204603F09CFC94E7012033
:10498000704700BF00300140DCAB000810B50446A2
:1049900003681A4A93421FD0B3F1804F1CD0A2F58E
:1049A0007C42934218D002F58062934214D002F503
:1049B0008062934210D002F59A3293420CD002F5F5
:1049C0008062934208D002F58062934204D040F2A4
:1049D0007D110B4803F0D5FB022384F83D3022689B
:1049E000936803F00703062B03D0136843F0010319
:1049F0001360012384F83D30002010BD0000014009
:104A000014AC000810B5044603681D4A93421FD039
:104A1000B3F1804F1CD0A2F57C42934218D002F52E
:104A20008062934214D002F58062934210D002F566
:104A30009A3293420CD002F58062934208D002F57C
:104A40008062934204D04FF4CC710E4803F099FB7E
:104A5000022384F83D302368196A41F21112114291
:104A600008D1196A40F24442114203D11A6822F077
:104A700001021A60012384F83D30002010BD00BF00
:104A80000000014014AC0008704770477047704741
:104A900010B5044603681A6912F0020F11D0DA68E3
:104AA00012F0020F0DD06FF002021A61012303779A
:104AB00003689B6913F0030F70D0FFF7E6FF002334
:104AC000237723681A6912F0040F12D0DA6812F003
:104AD000040F0ED06FF004021A61022323772368BB
:104AE0009B6913F4407F5FD02046FFF7CEFF002381
:104AF000237723681A6912F0080F12D0DA6812F0CF
:104B0000080F0ED06FF008021A6104232377236880
:104B1000DB6913F0030F4ED02046FFF7B6FF0023EA
:104B2000237723681A6912F0100F12D0DA6812F096
:104B3000100F0ED06FF010021A610823237723683C
:104B4000DB6913F4407F3DD02046FFF79EFF002332
:104B5000237723681A6912F0010F03D0DA6812F084
:104B6000010F36D123681A6912F0800F03D0DA687A
:104B700012F0800F34D123681A6912F0400F03D06D
:104B8000DA6812F0400F32D123681A6912F0200F50
:104B900003D0DA6812F0200F30D110BDFFF774FF98
:104BA0002046FFF773FF8AE72046FFF76DFF204698
:104BB000FFF76CFF9BE72046FFF766FF2046FFF7F5
:104BC00065FFACE72046FFF75FFF2046FFF75EFF7B
:104BD000BDE76FF001021A61204603F057FCC1E700
:104BE0006FF080021A61204600F0CBF8C3E76FF047
:104BF00040021A612046FFF74AFFC5E76FF0200226
:104C00001A61204600F0BCF8C7E700000368254A97
:104C100090420ED0B0F1804F0BD0A2F57C42904272
:104C200007D002F58062904203D002F58062904284
:104C300003D123F070034A6813431A4A90421AD0F2
:104C4000B0F1804F17D0A2F57C42904213D002F50C
:104C5000806290420FD002F5806290420BD002F544
:104C60009A32904207D002F58062904203D002F55A
:104C70008062904203D123F44073CA68134323F047
:104C800080034A69134303608B68C3620B688362C5
:104C9000044B984202D00123436170470B690363C0
:104CA000F9E700BF00000140002862D010B50446BB
:104CB0000368314A93421FD0B3F1804F1CD0A2F554
:104CC0007C42934218D002F58062934214D002F5E0
:104CD0008062934210D002F59A3293420CD002F5D2
:104CE0008062934208D002F58062934204D04FF470
:104CF0008571224803F045FAA3683BB1102B05D01B
:104D0000202B03D0402B01D0602B1AD123692BB16B
:104D1000B3F5807F02D0B3F5007F18D1A3690BB142
:104D2000802B1AD194F83D30EBB1022384F83D304A
:104D3000211D2068FFF76AFF012384F83D30002021
:104D400010BD40F20B110D4803F01BFADEE74FF4E3
:104D500086710A4803F015FAE0E740F20D110748A2
:104D600003F00FFADEE784F83C30204603F06EFBD8
:104D7000DBE70120704700BF0000014014AC0008D1
:104D8000704770472DE9F84304464268B44B9A4295
:104D900000F29C80E3681BB1B3F5005F40F09C809B
:104DA000236933B1B3F5806F03D0B3F5C06F40F022
:104DB000998063694FF6F372134200D123B940F62C
:104DC000E831A84803F0DDF92268136923F4405361
:104DD000E1680B431361A3682269134362691343BB
:104DE000E2691A432168CB6823F4164323F00C03CD
:104DF0001343CB602268536923F44073A1690B43CA
:104E00005361E369B3F5004F72D02368964A934229
:104E100000F02E8102F58062934200F02981FEF7B6
:104E200097FE00EB800000EB80006568AD00B0FBF2
:104E3000F5F58E4FA7FB05356D092E01FEF788FEAF
:104E400000EB800000EB80006568AD00B0FBF5F979
:104E5000FEF77EFE00EB800000EB80006568AD0091
:104E6000B0FBF5F5A7FB05356D094FF0640808FBAD
:104E700015952D013235A7FB05356D0905F0F005B7
:104E80003544FEF765FE00EB800000EB80006668AD
:104E9000B600B0FBF6F6FEF75BFE00EB800000EB21
:104EA000800063689B00B0FBF3F0A7FB0030400973
:104EB00008FB10684FEA081808F13208A7FB08370A
:104EC000C7F3431723682F449F6027E140F6E5317D
:104ED000644803F056F95DE740F6E631614803F0B7
:104EE00050F95DE740F6E7315E4803F04AF960E7C4
:104EF00023685D4A93425BD002F58062934257D0AB
:104F0000FEF726FE00EB800000EB800065686D0078
:104F1000B0FBF5F5554FA7FB05356D092E01FEF7E2
:104F200017FE00EB800000EB800065686D00B0FBB1
:104F3000F5F9FEF70DFE00EB800000EB80006568E0
:104F40006D00B0FBF5F5A7FB05356D094FF0640862
:104F500008FB1595ED003235A7FB05356D096D0091
:104F600005F4F8753544FEF7F3FD00EB800000EB27
:104F7000800066687600B0FBF6F6FEF7E9FD00EB10
:104F8000800000EB800063685B00B0FBF3F3A7FBDD
:104F900003235B0908FB13684FEAC80808F13208CD
:104FA000A7FB0837C7F3421723682F449F60B5E07B
:104FB000FEF7DEFD00EB800000EB800065686D0011
:104FC000B0FBF5F5294FA7FB05356D092E01FEF75E
:104FD000CFFD00EB800000EB800065686D00B0FB4A
:104FE000F5F9FEF7C5FD00EB800000EB8000656879
:104FF0006D00B0FBF5F5A7FB05356D094FF06408B2
:1050000008FB1595ED003235A7FB05356D096D00E0
:1050100005F4F8753544FEF7ABFD00EB800000EBBE
:10502000800066687600B0FBF6F6FEF7A1FD00EBA7
:10503000800000EB800063685B00B0FBF3F3A7FB2C
:1050400003235B0908FB13684FEAC80808F132081C
:10505000A7FB0837C7F3421723682F449F605DE022
:10506000A037A0004CAC0008001001401F85EB5198
:10507000FEF77EFD00EB800000EB80006568AD0070
:10508000B0FBF5F5264FA7FB05356D092E01FEF7A0
:105090006FFD00EB800000EB80006568AD00B0FBA9
:1050A000F5F9FEF765FD00EB800000EB8000656818
:1050B000AD00B0FBF5F5A7FB05356D094FF06408B1
:1050C00008FB15952D013235A7FB05356D0905F057
:1050D000F0053544FEF74CFD00EB800000EB80004E
:1050E0006668B600B0FBF6F6FEF742FD00EB800006
:1050F00000EB800063689B00B0FBF3F0A7FB00307F
:10510000400908FB10684FEA081808F13208A7FBAD
:105110000837C7F3431723682F449F60BDE8F8831F
:105120001F85EB512DE9F04105460F46164698467E
:10513000069C2B681B6837EA03030CBF012300237E
:10514000B3421DD1B4F1FF3FF3D02CB1FBF702FF06
:10515000A0EB0800A042ECD92A68D36823F4D073EE
:10516000D3602A68536923F001035361202385F833
:10517000393085F83A30002385F83830032000E0D4
:105180000020BDE8F0810000002877D010B504466B
:1051900083690BB303683A4A93420CD0A2F54C42A0
:1051A000934208D002F55042934204D040F2491194
:1051B000344802F0E6FFA369FBB1B3F5807F1CD051
:1051C000B3F5007F19D0B3F5407F16D04FF4A57129
:1051D0002C4802F0D6FF10E00368294A93420CD015
:1051E000A2F54C42934208D002F55042934204D0BB
:1051F0004FF4A771234802F0C4FFA36813B1B3F5BD
:10520000805F29D1E36913B1B3F5004F2AD194F837
:1052100039306BB3242384F839302268D36823F4FF
:105220000053D3602046FFF7ADFD2268136923F4D5
:10523000904313612268536923F02A035361226863
:10524000D36843F40053D3600020E063202384F844
:10525000393084F83A3010BD4FF4A871094802F093
:1052600090FFCFE740F25111064802F08AFFCEE7E7
:1052700084F83830204603F05BF9CBE70120704713
:10528000001001404CAC00082DE9F04182B01E46F0
:1052900090F83930DBB2202B55D104460D469046AC
:1052A000002955D0002A55D090F83830012B53D022
:1052B000012380F838300023C363212380F839307C
:1052C000FBF748FE0746A4F82480A4F8268010E0E7
:1052D00000963B46002280212046FFF723FF00284E
:1052E0003CD12B882268C3F3080353602369C3B9F8
:1052F0000235E38C9BB2B3B1E38C013B9BB2E384F8
:10530000A368B3F5805FE3D000963B46002280217E
:105310002046FFF707FF18BB2A7823685A6001353B
:10532000E7E70135E5E700963B46002240212046AD
:10533000FFF7F8FE0346A8B9202284F8392000229E
:1053400084F8382000E00223184602B0BDE8F0815E
:105350000123F9E70123F7E70223F5E70323F3E746
:105360000323F1E70323EFE7002301330C4A9342C1
:1053700011D80269002AF8DA036943F001030361D6
:1053800000230133064A934207D8026912F0010F45
:10539000F7D100207047032070470320704700BFFB
:1053A000400D030084B010B5044603A880E80E0049
:1053B000089B012B1FD1A36B23F48033A363E36805
:1053C00023F4840323F04003E360E36823F44013F1
:1053D000E3600F9B012B09D02046FFF7C5FF069B1A
:1053E000012B1BD0BDE8104004B07047E36843F4C4
:1053F0008013E360F0E7E36843F04003E360204696
:10540000FFF7B2FF0C9B23B9A36B43F48033A36374
:10541000E5E7A36B23F48033A363E0E7A36843F0DD
:105420000603A360A36843F02003A360DAE7836860
:1054300043F00103836000207047836823F0010379
:1054400083600020704708B5C36823F0C043C36081
:10545000012909D069B9C36843F08043C360322091
:10546000FBF77EFD002008BDC36843F00053C36016
:10547000F5E70120F7E70000890141F02001016113
:1054800000230133054A934205D8026912F0200F28
:10549000F7D1002070470320704700BF400D030084
:1054A0001023036100230133054A934205D80269A2
:1054B00012F0100FF7D1002070470320704700BF93
:1054C000400D030070B49DF80C4064B903339D088F
:1054D00007E000EB023303F5805351F8046B1E60C4
:1054E0000134AC42F5D3002070BC704703329208FF
:1054F000002393420CD210B400F58054246841F884
:10550000044B01339342F7D308465DF8044B7047D0
:10551000084670474269806910407047406900F052
:105520000100704710B400F58064D0F8003423F017
:105530000303C0F80034D0F8003401F00302134331
:10554000C0F80034012905D0022907D000205DF8F9
:10555000044B70474BF680336360F7E741F270739A
:105560006360F3E730B583B0044600250195D0F8B9
:1055700040340193019B23F02E030193019B43F4DC
:105580008073C0F840346420FBF7EAFC019B23F4ED
:105590008073C4F840340A20FBF7E2FC284603B0CD
:1055A00030BD82B000230193D0F840340193019BB9
:1055B00023F02E030193019B13F4805F01D1012995
:1055C0000CD0019B13F4805F05D021B9019B23F41B
:1055D0008053C0F84034002002B07047019B43F470
:1055E0008053C0F84034ECE784B038B5044605A8D1
:1055F00080E80E0025460023C4F8003EA36B43F468
:105600000013A363A36B23F40023A363A36B23F40E
:105610008023A363E36B13F4807F10D0079B032BDD
:1056200006D0D4F8003423F00403C4F800340CE0AE
:10563000D4F8003443F00403C4F8003405E0D4F88F
:10564000003423F00403C4F8003410212046FFF78F
:1056500013FF2046FFF724FF002209E005EB421369
:105660004FF0FF31C3F808150021C3F80C150132C3
:10567000069B9342F2D801212046FFF792FFC820F3
:10568000FBF76EFC0023A3614FF0FF336361E36B14
:1056900013F4807F17D04FF40073636203F18073BB
:1056A000A3620D4BC4F80031089B1BB9A36943F0FA
:1056B0001003A361A269094B1343A3610020BDE855
:1056C000384004B070478023636203F5C003A362CF
:1056D000034BC4F80031E7E70003E000080020A313
:1056E000E000400082B000230193D0F840340193E1
:1056F0000198C0F3414002B0704700F580608068B7
:1057000080B27047F0B506469DF8184000EB411591
:1057100005F5A0604FF0FF378760032C65D8DFE800
:1057200004F00256021840F29D47C76012F0800F45
:1057300009D1F76B17F4807F59D0C76847F060072D
:10574000C76000200CE0C76847F48077C76000207E
:1057500006E040F29D67C76012F0800F31D1002053
:1057600006F5806ED6F8187401F00F014FF0010CA9
:105770000CFA01F13943C6F81814B16941F000710F
:10578000B16112F0800F34D100269DF81410022967
:1057900032D000219B0503F0FE53D20202F4F04206
:1057A0001343A20402F440221343BDF81C20C2F3A9
:1057B0000A02134333430B43C5F80035032C1ED0B4
:1057C000F0BDC76847F48077C7600020C8E740F2A3
:1057D0002527C76012F0800F01D10020C0E7C768FD
:1057E00047F4C077C7600020BAE70120B8E700207F
:1057F000B6E74FF40046C8E74FF40031CAE7D5F8E2
:10580000003543F00053C5F80035D9E700F5806056
:10581000406980B2704710B400EB411101F5A064FB
:10582000D1F80035C3F381433BB3022B25D0D1F827
:10583000003543F08043C1F80035D0F8103413F43C
:105840007F0F49D1D1F8003523F00043C1F800356E
:10585000D1F8003543F00043C1F80035D1F80035E8
:1058600023F40043C1F8003500230133B3F57A7FF8
:1058700027D82268002AF8DB23E0D1F8003543F06E
:105880008043C1F80035C36A13F47F0F1DD1D1F8EE
:10589000003523F00043C1F80035D1F8003543F05E
:1058A0000043C1F80035D1F8003523F40043C1F8B6
:1058B000003500230133B3F57A7F02D82268002A2D
:1058C000F8DB00205DF8044B7047D1F8003543F059
:1058D0000043C1F80035F4E7D1F8003543F0004348
:1058E000C1F80035EDE7000000EB4111064AC1F8B0
:1058F0001025D1F8003523F0804343F00043C1F870
:1059000000350020704700BF0000088070B582B0ED
:105910004C78C36B13F4807F07D00B792BB912B985
:105920004B79012B11D0012A13D00B69E3B10D89FA
:105930002B44013BB3FBF5F39BB2B3F5807F14D945
:105940002D020D614FF480730FE02146FFF7CCFF6D
:1059500075E000EB4413D3F80C5525F06005C3F84F
:105960000C5500234B71E0E70123CD781DB10D8963
:1059700005FB03F50D610D69C5F31205374E06EA07
:10598000C3432B438D7A6D0705F0C04500EB4414EB
:105990002B43C4F8103512B1CB68C4F8143500F5A8
:1059A0008066B36813F0010FD4F8003523F000537C
:1059B000C4F80035D4F800350CBF4FF00055002571
:1059C0002B43C4F80035D4F80055254B1D601D68E5
:1059D00025F080451D60CB78C3B1214D2B6843F481
:1059E00000432B601E4B1D6845F000451D601B6881
:1059F000C4F800351ABBCB780BBB0B69FBB1CA7975
:105A0000032A14D8DFE802F0081E081E144D2B6884
:105A100023F400432B60E5E70333C26A92B2C3F379
:105A20008F039A4203D2836943F020038361CC68D9
:105A30004A780B8A002100912146FFF743FD0020A0
:105A400002B070BD0333326992B2C3F38F039A423E
:105A5000EDD2836943F080638361E8E70000F81FBB
:105A60001802002070B505460446FFF7E6FC102139
:105A70002846FFF701FD2846FFF712FD00220AE045
:105A800004EB4211D1F8003523F0802343F080432A
:105A9000C1F8003501320F2AF2D90020034600E098
:105AA00001300F2813D804EB401606F5A061D6F894
:105AB000002522F4004242F04042C6F8002501339E
:105AC000B3F57A7FECD80A68002AF8DBE8E74FF0F4
:105AD000FF33C5F814346B612846FFF7A8FC00209B
